{
  "contractName": "CaseSale",
  "abi": [
    {
      "inputs": [],
      "stateMutability": "nonpayable",
      "type": "constructor"
    },
    {
      "anonymous": false,
      "inputs": [
        {
          "indexed": true,
          "internalType": "address",
          "name": "buyer",
          "type": "address"
        },
        {
          "indexed": true,
          "internalType": "uint256",
          "name": "caseId",
          "type": "uint256"
        }
      ],
      "name": "Buy",
      "type": "event"
    },
    {
      "anonymous": false,
      "inputs": [
        {
          "indexed": true,
          "internalType": "address",
          "name": "buyer",
          "type": "address"
        },
        {
          "indexed": true,
          "internalType": "uint256",
          "name": "caseId",
          "type": "uint256"
        }
      ],
      "name": "Sell",
      "type": "event"
    },
    {
      "inputs": [
        {
          "internalType": "uint256",
          "name": "",
          "type": "uint256"
        }
      ],
      "name": "cases",
      "outputs": [
        {
          "internalType": "uint256",
          "name": "price",
          "type": "uint256"
        },
        {
          "internalType": "address",
          "name": "owner",
          "type": "address"
        }
      ],
      "stateMutability": "view",
      "type": "function",
      "constant": true
    },
    {
      "inputs": [],
      "name": "owner",
      "outputs": [
        {
          "internalType": "address",
          "name": "",
          "type": "address"
        }
      ],
      "stateMutability": "view",
      "type": "function",
      "constant": true
    },
    {
      "inputs": [
        {
          "internalType": "uint256",
          "name": "",
          "type": "uint256"
        }
      ],
      "name": "transactions",
      "outputs": [
        {
          "internalType": "address",
          "name": "buyer",
          "type": "address"
        },
        {
          "internalType": "uint256",
          "name": "caseId",
          "type": "uint256"
        },
        {
          "internalType": "uint256",
          "name": "timestamp",
          "type": "uint256"
        },
        {
          "internalType": "string",
          "name": "transactionType",
          "type": "string"
        },
        {
          "internalType": "uint256",
          "name": "amount",
          "type": "uint256"
        }
      ],
      "stateMutability": "view",
      "type": "function",
      "constant": true
    },
    {
      "inputs": [
        {
          "internalType": "uint256",
          "name": "caseId",
          "type": "uint256"
        }
      ],
      "name": "buyCase",
      "outputs": [],
      "stateMutability": "payable",
      "type": "function",
      "payable": true
    },
    {
      "inputs": [
        {
          "internalType": "uint256",
          "name": "caseId",
          "type": "uint256"
        }
      ],
      "name": "sellCase",
      "outputs": [],
      "stateMutability": "nonpayable",
      "type": "function"
    },
    {
      "inputs": [],
      "name": "getTransactionHistory",
      "outputs": [
        {
          "components": [
            {
              "internalType": "address",
              "name": "buyer",
              "type": "address"
            },
            {
              "internalType": "uint256",
              "name": "caseId",
              "type": "uint256"
            },
            {
              "internalType": "uint256",
              "name": "timestamp",
              "type": "uint256"
            },
            {
              "internalType": "string",
              "name": "transactionType",
              "type": "string"
            },
            {
              "internalType": "uint256",
              "name": "amount",
              "type": "uint256"
            }
          ],
          "internalType": "struct CaseSale.Transaction[]",
          "name": "",
          "type": "tuple[]"
        }
      ],
      "stateMutability": "view",
      "type": "function",
      "constant": true
    }
  ],
  "bytecode": "0x60806040523480156200001157600080fd5b5033601560006101000a81548173ffffffffffffffffffffffffffffffffffffffff021916908373ffffffffffffffffffffffffffffffffffffffff16021790555060005b600a811015620000ff57670de0b6b3a7640000600182600a811062000080576200007f62000106565b5b60020201600001819055506000600182600a8110620000a457620000a362000106565b5b6002020160010160006101000a81548173ffffffffffffffffffffffffffffffffffffffff021916908373ffffffffffffffffffffffffffffffffffffffff1602179055508080620000f6906200016e565b91505062000056565b50620001bc565b7f4e487b7100000000000000000000000000000000000000000000000000000000600052603260045260246000fd5b7f4e487b7100000000000000000000000000000000000000000000000000000000600052601160045260246000fd5b6000819050919050565b60006200017b8262000164565b91507fffffffffffffffffffffffffffffffffffffffffffffffffffffffffffffffff821415620001b157620001b062000135565b5b600182019050919050565b61115380620001cc6000396000f3fe6080604052600436106100555760003560e01c80631132cf141461005a578063355e3d27146100765780638da5cb5b1461009f5780639ace38c2146100ca578063b76d4fc31461010b578063f09790dd14610136575b600080fd5b610074600480360381019061006f9190610b67565b610174565b005b34801561008257600080fd5b5061009d60048036038101906100989190610b67565b61048d565b005b3480156100ab57600080fd5b506100b46107c6565b6040516100c19190610bd5565b60405180910390f35b3480156100d657600080fd5b506100f160048036038101906100ec9190610b67565b6107ec565b604051610102959493929190610c98565b60405180910390f35b34801561011757600080fd5b506101206108da565b60405161012d9190610e92565b60405180910390f35b34801561014257600080fd5b5061015d60048036038101906101589190610b67565b610a3f565b60405161016b929190610eb4565b60405180910390f35b600081101580156101855750600a81105b6101c4576040517f08c379a00000000000000000000000000000000000000000000000000000000081526004016101bb90610f29565b60405180910390fd5b600073ffffffffffffffffffffffffffffffffffffffff16600182600a81106101f0576101ef610f49565b5b6002020160010160009054906101000a900473ffffffffffffffffffffffffffffffffffffffff1673ffffffffffffffffffffffffffffffffffffffff161461026e576040517f08c379a000000000000000000000000000000000000000000000000000000000815260040161026590610fc4565b60405180910390fd5b600181600a811061028257610281610f49565b5b600202016000015434146102cb576040517f08c379a00000000000000000000000000000000000000000000000000000000081526004016102c290611030565b60405180910390fd5b33600182600a81106102e0576102df610f49565b5b6002020160010160006101000a81548173ffffffffffffffffffffffffffffffffffffffff021916908373ffffffffffffffffffffffffffffffffffffffff16021790555060006040518060a001604052803373ffffffffffffffffffffffffffffffffffffffff1681526020018381526020014281526020016040518060400160405280600381526020017f6275790000000000000000000000000000000000000000000000000000000000815250815260200134815250908060018154018082558091505060019003906000526020600020906005020160009091909190915060008201518160000160006101000a81548173ffffffffffffffffffffffffffffffffffffffff021916908373ffffffffffffffffffffffffffffffffffffffff16021790555060208201518160010155604082015181600201556060820151816003019080519060200190610439929190610a89565b50608082015181600401555050803373ffffffffffffffffffffffffffffffffffffffff167fe3d4187f6ca4248660cc0ac8b8056515bac4a8132be2eca31d6d0cc170722a7e60405160405180910390a350565b6000811015801561049e5750600a81105b6104dd576040517f08c379a00000000000000000000000000000000000000000000000000000000081526004016104d490610f29565b60405180910390fd5b3373ffffffffffffffffffffffffffffffffffffffff16600182600a811061050857610507610f49565b5b6002020160010160009054906101000a900473ffffffffffffffffffffffffffffffffffffffff1673ffffffffffffffffffffffffffffffffffffffff1614610586576040517f08c379a000000000000000000000000000000000000000000000000000000000815260040161057d9061109c565b60405180910390fd5b6000600182600a811061059c5761059b610f49565b5b6002020160010160006101000a81548173ffffffffffffffffffffffffffffffffffffffff021916908373ffffffffffffffffffffffffffffffffffffffff1602179055503373ffffffffffffffffffffffffffffffffffffffff166108fc600183600a811061060f5761060e610f49565b5b60020201600001549081150290604051600060405180830381858888f19350505050158015610642573d6000803e3d6000fd5b5060006040518060a001604052803373ffffffffffffffffffffffffffffffffffffffff1681526020018381526020014281526020016040518060400160405280600481526020017f73656c6c000000000000000000000000000000000000000000000000000000008152508152602001600184600a81106106c7576106c6610f49565b5b6002020160000154815250908060018154018082558091505060019003906000526020600020906005020160009091909190915060008201518160000160006101000a81548173ffffffffffffffffffffffffffffffffffffffff021916908373ffffffffffffffffffffffffffffffffffffffff16021790555060208201518160010155604082015181600201556060820151816003019080519060200190610772929190610a89565b50608082015181600401555050803373ffffffffffffffffffffffffffffffffffffffff167f5e5e995ce3133561afceaa51a9a154d5db228cd7525d34df5185582c18d3df0960405160405180910390a350565b601560009054906101000a900473ffffffffffffffffffffffffffffffffffffffff1681565b600081815481106107fc57600080fd5b90600052602060002090600502016000915090508060000160009054906101000a900473ffffffffffffffffffffffffffffffffffffffff1690806001015490806002015490806003018054610851906110eb565b80601f016020809104026020016040519081016040528092919081815260200182805461087d906110eb565b80156108ca5780601f1061089f576101008083540402835291602001916108ca565b820191906000526020600020905b8154815290600101906020018083116108ad57829003601f168201915b5050505050908060040154905085565b60606000805480602002602001604051908101604052809291908181526020016000905b82821015610a3657838290600052602060002090600502016040518060a00160405290816000820160009054906101000a900473ffffffffffffffffffffffffffffffffffffffff1673ffffffffffffffffffffffffffffffffffffffff1673ffffffffffffffffffffffffffffffffffffffff168152602001600182015481526020016002820154815260200160038201805461099b906110eb565b80601f01602080910402602001604051908101604052809291908181526020018280546109c7906110eb565b8015610a145780601f106109e957610100808354040283529160200191610a14565b820191906000526020600020905b8154815290600101906020018083116109f757829003601f168201915b50505050508152602001600482015481525050815260200190600101906108fe565b50505050905090565b600181600a8110610a4f57600080fd5b600202016000915090508060000154908060010160009054906101000a900473ffffffffffffffffffffffffffffffffffffffff16905082565b828054610a95906110eb565b90600052602060002090601f016020900481019282610ab75760008555610afe565b82601f10610ad057805160ff1916838001178555610afe565b82800160010185558215610afe579182015b82811115610afd578251825591602001919060010190610ae2565b5b509050610b0b9190610b0f565b5090565b5b80821115610b28576000816000905550600101610b10565b5090565b600080fd5b6000819050919050565b610b4481610b31565b8114610b4f57600080fd5b50565b600081359050610b6181610b3b565b92915050565b600060208284031215610b7d57610b7c610b2c565b5b6000610b8b84828501610b52565b91505092915050565b600073ffffffffffffffffffffffffffffffffffffffff82169050919050565b6000610bbf82610b94565b9050919050565b610bcf81610bb4565b82525050565b6000602082019050610bea6000830184610bc6565b92915050565b610bf981610b31565b82525050565b600081519050919050565b600082825260208201905092915050565b60005b83811015610c39578082015181840152602081019050610c1e565b83811115610c48576000848401525b50505050565b6000601f19601f8301169050919050565b6000610c6a82610bff565b610c748185610c0a565b9350610c84818560208601610c1b565b610c8d81610c4e565b840191505092915050565b600060a082019050610cad6000830188610bc6565b610cba6020830187610bf0565b610cc76040830186610bf0565b8181036060830152610cd98185610c5f565b9050610ce86080830184610bf0565b9695505050505050565b600081519050919050565b600082825260208201905092915050565b6000819050602082019050919050565b610d2781610bb4565b82525050565b610d3681610b31565b82525050565b600082825260208201905092915050565b6000610d5882610bff565b610d628185610d3c565b9350610d72818560208601610c1b565b610d7b81610c4e565b840191505092915050565b600060a083016000830151610d9e6000860182610d1e565b506020830151610db16020860182610d2d565b506040830151610dc46040860182610d2d565b5060608301518482036060860152610ddc8282610d4d565b9150506080830151610df16080860182610d2d565b508091505092915050565b6000610e088383610d86565b905092915050565b6000602082019050919050565b6000610e2882610cf2565b610e328185610cfd565b935083602082028501610e4485610d0e565b8060005b85811015610e805784840389528151610e618582610dfc565b9450610e6c83610e10565b925060208a01995050600181019050610e48565b50829750879550505050505092915050565b60006020820190508181036000830152610eac8184610e1d565b905092915050565b6000604082019050610ec96000830185610bf0565b610ed66020830184610bc6565b9392505050565b7f496e76616c696420436173652049440000000000000000000000000000000000600082015250565b6000610f13600f83610c0a565b9150610f1e82610edd565b602082019050919050565b60006020820190508181036000830152610f4281610f06565b9050919050565b7f4e487b7100000000000000000000000000000000000000000000000000000000600052603260045260246000fd5b7f4361736520616c7265616479206f776e65640000000000000000000000000000600082015250565b6000610fae601283610c0a565b9150610fb982610f78565b602082019050919050565b60006020820190508181036000830152610fdd81610fa1565b9050919050565b7f496e636f72726563742045746865722073656e74000000000000000000000000600082015250565b600061101a601483610c0a565b915061102582610fe4565b602082019050919050565b600060208201905081810360008301526110498161100d565b9050919050565b7f4e6f74207468652043617365206f776e65720000000000000000000000000000600082015250565b6000611086601283610c0a565b915061109182611050565b602082019050919050565b600060208201905081810360008301526110b581611079565b9050919050565b7f4e487b7100000000000000000000000000000000000000000000000000000000600052602260045260246000fd5b6000600282049050600182168061110357607f821691505b60208210811415611117576111166110bc565b5b5091905056fea26469706673582212207f7e618924d0c8059b5fedf9f88fdd57321efafc444282ef674977d6e0eec13664736f6c634300080b0033",
  "immutableReferences": {},
  "source": "// SPDX-License-Identifier: MIT\r\npragma solidity ^0.8.0;\r\n\r\ncontract CaseSale {\r\n    struct Case {\r\n        uint price;\r\n        address owner;\r\n    }\r\n\r\n    struct Transaction {\r\n    address buyer;\r\n    uint256 caseId;\r\n    uint256 timestamp;\r\n    string transactionType; // \"buy\" or \"sell\"\r\n    uint256 amount; //buy or sell price\r\n    }\r\n    Transaction[] public transactions;\r\n\r\n    Case[10] public cases;\r\n    address public owner;\r\n\r\n    event Buy(address indexed buyer, uint indexed caseId);\r\n    event Sell(address indexed buyer, uint indexed caseId);\r\n\r\n    constructor() {\r\n        owner = msg.sender;\r\n        // Khi to tt c 10 v vi gi l 1 ETH\r\n        for (uint i = 0; i < 10; i++) {\r\n            cases[i].price = 1 ether;\r\n            cases[i].owner = address(0);\r\n        }\r\n    }\r\n\r\n    function buyCase(uint caseId) external payable {\r\n        require(caseId >= 0 && caseId < 10, \"Invalid Case ID\");\r\n        require(cases[caseId].owner == address(0), \"Case already owned\");\r\n        require(msg.value == cases[caseId].price, \"Incorrect Ether sent\");\r\n\r\n        cases[caseId].owner = msg.sender;\r\n        transactions.push(Transaction(msg.sender, caseId, block.timestamp, \"buy\", msg.value));\r\n        emit Buy(msg.sender, caseId);\r\n    }\r\n\r\n    function sellCase(uint caseId) external {\r\n        require(caseId >= 0 && caseId < 10, \"Invalid Case ID\");\r\n        require(cases[caseId].owner == msg.sender, \"Not the Case owner\");\r\n\r\n        cases[caseId].owner = address(0);\r\n        payable(msg.sender).transfer(cases[caseId].price);\r\n        transactions.push(Transaction(msg.sender, caseId, block.timestamp, \"sell\", cases[caseId].price));\r\n        emit Sell(msg.sender, caseId);\r\n    }\r\n\r\n    // function getCaseInfo(uint caseId) external view returns (uint price, address owner) {\r\n    //     require(caseId >= 0 && caseId < 10, \"Invalid Case ID\");\r\n    //     return (cases[caseId].price, cases[caseId].owner);\r\n    // }\r\n    function getTransactionHistory() external view returns (Transaction[] memory) {\r\n    return transactions;\r\n    }\r\n}\r\n",
  "sourcePath": "C:\\xampp\\htdocs\\Steam_Market\\contracts\\CaseSale.sol",
  "compiler": {
    "name": "solc",
    "version": "0.8.11+commit.d7f03943.Emscripten.clang"
  },
  "schemaVersion": "3.4.16",
  "updatedAt": "2024-03-20T04:30:40.895Z",
  "networkType": "ethereum",
  "devdoc": {
    "kind": "dev",
    "methods": {},
    "version": 1
  },
  "userdoc": {
    "kind": "user",
    "methods": {},
    "version": 1
  }
}