{
  "contractName": "CaseSale",
  "abi": [
    {
      "inputs": [],
      "stateMutability": "nonpayable",
      "type": "constructor"
    },
    {
      "anonymous": false,
      "inputs": [
        {
          "indexed": true,
          "internalType": "address",
          "name": "buyer",
          "type": "address"
        },
        {
          "indexed": true,
          "internalType": "uint256",
          "name": "caseId",
          "type": "uint256"
        }
      ],
      "name": "Buy",
      "type": "event"
    },
    {
      "anonymous": false,
      "inputs": [
        {
          "indexed": true,
          "internalType": "address",
          "name": "buyer",
          "type": "address"
        },
        {
          "indexed": true,
          "internalType": "uint256",
          "name": "caseId",
          "type": "uint256"
        }
      ],
      "name": "Offer",
      "type": "event"
    },
    {
      "inputs": [
        {
          "internalType": "uint256",
          "name": "",
          "type": "uint256"
        }
      ],
      "name": "cases",
      "outputs": [
        {
          "internalType": "address",
          "name": "owner",
          "type": "address"
        },
        {
          "internalType": "bool",
          "name": "isForSale",
          "type": "bool"
        }
      ],
      "stateMutability": "view",
      "type": "function",
      "constant": true
    },
    {
      "inputs": [],
      "name": "owner",
      "outputs": [
        {
          "internalType": "address",
          "name": "",
          "type": "address"
        }
      ],
      "stateMutability": "view",
      "type": "function",
      "constant": true
    },
    {
      "inputs": [
        {
          "internalType": "uint256",
          "name": "",
          "type": "uint256"
        }
      ],
      "name": "transactions",
      "outputs": [
        {
          "internalType": "address",
          "name": "buyer",
          "type": "address"
        },
        {
          "internalType": "uint256",
          "name": "caseId",
          "type": "uint256"
        },
        {
          "internalType": "uint256",
          "name": "timestamp",
          "type": "uint256"
        },
        {
          "internalType": "uint256",
          "name": "amount",
          "type": "uint256"
        }
      ],
      "stateMutability": "view",
      "type": "function",
      "constant": true
    },
    {
      "inputs": [
        {
          "internalType": "uint256",
          "name": "caseId",
          "type": "uint256"
        }
      ],
      "name": "buyCase",
      "outputs": [],
      "stateMutability": "payable",
      "type": "function",
      "payable": true
    },
    {
      "inputs": [
        {
          "internalType": "uint256",
          "name": "caseId",
          "type": "uint256"
        }
      ],
      "name": "offerCase",
      "outputs": [],
      "stateMutability": "nonpayable",
      "type": "function"
    },
    {
      "inputs": [],
      "name": "getTransactionHistory",
      "outputs": [
        {
          "components": [
            {
              "internalType": "address",
              "name": "buyer",
              "type": "address"
            },
            {
              "internalType": "uint256",
              "name": "caseId",
              "type": "uint256"
            },
            {
              "internalType": "uint256",
              "name": "timestamp",
              "type": "uint256"
            },
            {
              "internalType": "uint256",
              "name": "amount",
              "type": "uint256"
            }
          ],
          "internalType": "struct CaseSale.Transaction[]",
          "name": "",
          "type": "tuple[]"
        }
      ],
      "stateMutability": "view",
      "type": "function",
      "constant": true
    }
  ],
  "bytecode": "0x608060405234801561001057600080fd5b5033600260006101000a81548173ffffffffffffffffffffffffffffffffffffffff021916908373ffffffffffffffffffffffffffffffffffffffff16021790555060005b60148110156101515760016040518060400160405280600260009054906101000a900473ffffffffffffffffffffffffffffffffffffffff1673ffffffffffffffffffffffffffffffffffffffff168152602001600115158152509080600181540180825580915050600190039060005260206000200160009091909190915060008201518160000160006101000a81548173ffffffffffffffffffffffffffffffffffffffff021916908373ffffffffffffffffffffffffffffffffffffffff16021790555060208201518160000160146101000a81548160ff0219169083151502179055505050808061014990610190565b915050610055565b506101d9565b7f4e487b7100000000000000000000000000000000000000000000000000000000600052601160045260246000fd5b6000819050919050565b600061019b82610186565b91507fffffffffffffffffffffffffffffffffffffffffffffffffffffffffffffffff8214156101ce576101cd610157565b5b600182019050919050565b610acb806101e86000396000f3fe6080604052600436106100555760003560e01c80631132cf141461005a5780638da5cb5b1461007657806399c110d6146100a15780639ace38c2146100ca578063b76d4fc31461010a578063f09790dd14610135575b600080fd5b610074600480360381019061006f9190610718565b610173565b005b34801561008257600080fd5b5061008b610460565b6040516100989190610786565b60405180910390f35b3480156100ad57600080fd5b506100c860048036038101906100c39190610718565b610486565b005b3480156100d657600080fd5b506100f160048036038101906100ec9190610718565b61054d565b60405161010194939291906107b0565b60405180910390f35b34801561011657600080fd5b5061011f6105ad565b60405161012c9190610917565b60405180910390f35b34801561014157600080fd5b5061015c60048036038101906101579190610718565b610680565b60405161016a929190610954565b60405180910390f35b60018054905081106101ba576040517f08c379a00000000000000000000000000000000000000000000000000000000081526004016101b1906109da565b60405180910390fd5b600181815481106101ce576101cd6109fa565b5b9060005260206000200160000160149054906101000a900460ff16610228576040517f08c379a000000000000000000000000000000000000000000000000000000000815260040161021f90610a75565b60405180910390fd5b60006001828154811061023e5761023d6109fa565b5b9060005260206000200160000160009054906101000a900473ffffffffffffffffffffffffffffffffffffffff1690503360018381548110610283576102826109fa565b5b9060005260206000200160000160006101000a81548173ffffffffffffffffffffffffffffffffffffffff021916908373ffffffffffffffffffffffffffffffffffffffff1602179055506000600183815481106102e4576102e36109fa565b5b9060005260206000200160000160146101000a81548160ff0219169083151502179055508073ffffffffffffffffffffffffffffffffffffffff166108fc349081150290604051600060405180830381858888f1935050505015801561034e573d6000803e3d6000fd5b50600060405180608001604052803373ffffffffffffffffffffffffffffffffffffffff16815260200184815260200142815260200134815250908060018154018082558091505060019003906000526020600020906004020160009091909190915060008201518160000160006101000a81548173ffffffffffffffffffffffffffffffffffffffff021916908373ffffffffffffffffffffffffffffffffffffffff1602179055506020820151816001015560408201518160020155606082015181600301555050813373ffffffffffffffffffffffffffffffffffffffff167fe3d4187f6ca4248660cc0ac8b8056515bac4a8132be2eca31d6d0cc170722a7e60405160405180910390a35050565b600260009054906101000a900473ffffffffffffffffffffffffffffffffffffffff1681565b60018054905081106104cd576040517f08c379a00000000000000000000000000000000000000000000000000000000081526004016104c4906109da565b60405180910390fd5b60018082815481106104e2576104e16109fa565b5b9060005260206000200160000160146101000a81548160ff021916908315150217905550803373ffffffffffffffffffffffffffffffffffffffff167ff1f17f1a9edc53df960a0bec0dc86cb2bf5606c7826b3b8e701e70c91c28aa2a60405160405180910390a350565b6000818154811061055d57600080fd5b90600052602060002090600402016000915090508060000160009054906101000a900473ffffffffffffffffffffffffffffffffffffffff16908060010154908060020154908060030154905084565b60606000805480602002602001604051908101604052809291908181526020016000905b8282101561067757838290600052602060002090600402016040518060800160405290816000820160009054906101000a900473ffffffffffffffffffffffffffffffffffffffff1673ffffffffffffffffffffffffffffffffffffffff1673ffffffffffffffffffffffffffffffffffffffff1681526020016001820154815260200160028201548152602001600382015481525050815260200190600101906105d1565b50505050905090565b6001818154811061069057600080fd5b906000526020600020016000915090508060000160009054906101000a900473ffffffffffffffffffffffffffffffffffffffff16908060000160149054906101000a900460ff16905082565b600080fd5b6000819050919050565b6106f5816106e2565b811461070057600080fd5b50565b600081359050610712816106ec565b92915050565b60006020828403121561072e5761072d6106dd565b5b600061073c84828501610703565b91505092915050565b600073ffffffffffffffffffffffffffffffffffffffff82169050919050565b600061077082610745565b9050919050565b61078081610765565b82525050565b600060208201905061079b6000830184610777565b92915050565b6107aa816106e2565b82525050565b60006080820190506107c56000830187610777565b6107d260208301866107a1565b6107df60408301856107a1565b6107ec60608301846107a1565b95945050505050565b600081519050919050565b600082825260208201905092915050565b6000819050602082019050919050565b61082a81610765565b82525050565b610839816106e2565b82525050565b6080820160008201516108556000850182610821565b5060208201516108686020850182610830565b50604082015161087b6040850182610830565b50606082015161088e6060850182610830565b50505050565b60006108a0838361083f565b60808301905092915050565b6000602082019050919050565b60006108c4826107f5565b6108ce8185610800565b93506108d983610811565b8060005b8381101561090a5781516108f18882610894565b97506108fc836108ac565b9250506001810190506108dd565b5085935050505092915050565b6000602082019050818103600083015261093181846108b9565b905092915050565b60008115159050919050565b61094e81610939565b82525050565b60006040820190506109696000830185610777565b6109766020830184610945565b9392505050565b600082825260208201905092915050565b7f496e76616c696420436173652049440000000000000000000000000000000000600082015250565b60006109c4600f8361097d565b91506109cf8261098e565b602082019050919050565b600060208201905081810360008301526109f3816109b7565b9050919050565b7f4e487b7100000000000000000000000000000000000000000000000000000000600052603260045260246000fd5b7f43617365206e6f7420666f722073616c65000000000000000000000000000000600082015250565b6000610a5f60118361097d565b9150610a6a82610a29565b602082019050919050565b60006020820190508181036000830152610a8e81610a52565b905091905056fea26469706673582212208b886a9a2c269f94549729cc24b8c6841cd7df23b71d052dff9be103a358264c64736f6c634300080b0033",
  "immutableReferences": {},
  "source": "// SPDX-License-Identifier: MIT\r\npragma solidity ^0.8.0;\r\n\r\ncontract CaseSale {\r\n    struct Case {\r\n        address owner;\r\n        // uint256 price;\r\n        bool isForSale;\r\n    }\r\n\r\n    struct Transaction {\r\n        address buyer;\r\n        uint256 caseId;\r\n        uint256 timestamp;\r\n        uint256 amount; // buy or offer price\r\n    }\r\n    Transaction[] public transactions;\r\n\r\n    Case[] public cases;\r\n    address public owner;\r\n\r\n    event Buy(address indexed buyer, uint indexed caseId);\r\n    event Offer(address indexed buyer, uint indexed caseId);\r\n\r\n    constructor() {\r\n        owner = msg.sender;\r\n        for (uint i = 0; i < 20; i++) {\r\n            cases.push(Case(address(owner), true));\r\n        }\r\n    }\r\n\r\n    function buyCase(uint caseId) external payable {\r\n        require(caseId < cases.length, \"Invalid Case ID\");\r\n        require(cases[caseId].isForSale, \"Case not for sale\");\r\n\r\n        address previousOwner = cases[caseId].owner; // Lu li ch s hu trc \r\n        cases[caseId].owner = msg.sender; // Cp nht ch s hu mi\r\n        cases[caseId].isForSale = false;\r\n\r\n        payable(previousOwner).transfer(msg.value); // Chuyn tin cho ch s hu trc \r\n        transactions.push(\r\n            Transaction(msg.sender, caseId, block.timestamp, msg.value)\r\n        );\r\n        emit Buy(msg.sender, caseId);\r\n    }\r\n\r\n    function offerCase(uint caseId) external {\r\n        require(caseId < cases.length, \"Invalid Case ID\");\r\n        cases[caseId].isForSale = true;\r\n        emit Offer(msg.sender, caseId);\r\n    }\r\n\r\n    function getTransactionHistory()\r\n        external\r\n        view\r\n        returns (Transaction[] memory)\r\n    {\r\n        return transactions;\r\n    }\r\n}\r\n",
  "sourcePath": "E:\\xampp\\htdocs\\Steam_Market\\contracts\\CaseSale.sol",
  "compiler": {
    "name": "solc",
    "version": "0.8.11+commit.d7f03943.Emscripten.clang"
  },
  "schemaVersion": "3.4.16",
  "updatedAt": "2024-03-22T17:38:07.522Z",
  "networkType": "ethereum",
  "devdoc": {
    "kind": "dev",
    "methods": {},
    "version": 1
  },
  "userdoc": {
    "kind": "user",
    "methods": {},
    "version": 1
  }
}