{
  "contractName": "TicketSales",
  "abi": [
    {
      "inputs": [],
      "stateMutability": "nonpayable",
      "type": "constructor"
    },
    {
      "anonymous": false,
      "inputs": [
        {
          "indexed": false,
          "internalType": "address",
          "name": "buyer",
          "type": "address"
        },
        {
          "indexed": false,
          "internalType": "uint256",
          "name": "ticketId",
          "type": "uint256"
        }
      ],
      "name": "TicketPurchased",
      "type": "event"
    },
    {
      "anonymous": false,
      "inputs": [
        {
          "indexed": false,
          "internalType": "address",
          "name": "buyer",
          "type": "address"
        },
        {
          "indexed": false,
          "internalType": "uint256",
          "name": "ticketId",
          "type": "uint256"
        }
      ],
      "name": "TicketReturned",
      "type": "event"
    },
    {
      "inputs": [],
      "name": "TOTAL_TICKETS",
      "outputs": [
        {
          "internalType": "uint256",
          "name": "",
          "type": "uint256"
        }
      ],
      "stateMutability": "view",
      "type": "function",
      "constant": true
    },
    {
      "inputs": [
        {
          "internalType": "address",
          "name": "",
          "type": "address"
        },
        {
          "internalType": "uint256",
          "name": "",
          "type": "uint256"
        }
      ],
      "name": "customerTickets",
      "outputs": [
        {
          "internalType": "uint256",
          "name": "",
          "type": "uint256"
        }
      ],
      "stateMutability": "view",
      "type": "function",
      "constant": true
    },
    {
      "inputs": [],
      "name": "owner",
      "outputs": [
        {
          "internalType": "address",
          "name": "",
          "type": "address"
        }
      ],
      "stateMutability": "view",
      "type": "function",
      "constant": true
    },
    {
      "inputs": [
        {
          "internalType": "uint256",
          "name": "",
          "type": "uint256"
        }
      ],
      "name": "tickets",
      "outputs": [
        {
          "internalType": "uint256",
          "name": "price",
          "type": "uint256"
        },
        {
          "internalType": "address",
          "name": "owner",
          "type": "address"
        }
      ],
      "stateMutability": "view",
      "type": "function",
      "constant": true
    },
    {
      "inputs": [
        {
          "internalType": "uint256",
          "name": "",
          "type": "uint256"
        }
      ],
      "name": "transactions",
      "outputs": [
        {
          "internalType": "address",
          "name": "buyer",
          "type": "address"
        },
        {
          "internalType": "uint256",
          "name": "ticketId",
          "type": "uint256"
        },
        {
          "internalType": "uint256",
          "name": "timestamp",
          "type": "uint256"
        },
        {
          "internalType": "string",
          "name": "transactionType",
          "type": "string"
        }
      ],
      "stateMutability": "view",
      "type": "function",
      "constant": true
    },
    {
      "inputs": [
        {
          "internalType": "uint256",
          "name": "ticketId",
          "type": "uint256"
        }
      ],
      "name": "buyTicket",
      "outputs": [],
      "stateMutability": "payable",
      "type": "function",
      "payable": true
    },
    {
      "inputs": [
        {
          "internalType": "uint256",
          "name": "ticketId",
          "type": "uint256"
        }
      ],
      "name": "returnTicket",
      "outputs": [],
      "stateMutability": "nonpayable",
      "type": "function"
    },
    {
      "inputs": [],
      "name": "getAllTransactions",
      "outputs": [
        {
          "components": [
            {
              "internalType": "address",
              "name": "buyer",
              "type": "address"
            },
            {
              "internalType": "uint256",
              "name": "ticketId",
              "type": "uint256"
            },
            {
              "internalType": "uint256",
              "name": "timestamp",
              "type": "uint256"
            },
            {
              "internalType": "string",
              "name": "transactionType",
              "type": "string"
            }
          ],
          "internalType": "struct TicketSales.Transaction[]",
          "name": "",
          "type": "tuple[]"
        }
      ],
      "stateMutability": "view",
      "type": "function",
      "constant": true
    }
  ],
  "bytecode": "0x60806040523480156200001157600080fd5b50336000806101000a81548173ffffffffffffffffffffffffffffffffffffffff021916908373ffffffffffffffffffffffffffffffffffffffff16021790555060005b600a8110156200012a576040518060400160405280662386f26fc100006001846200008191906200016a565b6200008d9190620001c7565b8152602001600073ffffffffffffffffffffffffffffffffffffffff16815250600160008381526020019081526020016000206000820151816000015560208201518160010160006101000a81548173ffffffffffffffffffffffffffffffffffffffff021916908373ffffffffffffffffffffffffffffffffffffffff1602179055509050508080620001219062000228565b91505062000055565b5062000276565b6000819050919050565b7f4e487b7100000000000000000000000000000000000000000000000000000000600052601160045260246000fd5b6000620001778262000131565b9150620001848362000131565b9250827fffffffffffffffffffffffffffffffffffffffffffffffffffffffffffffffff03821115620001bc57620001bb6200013b565b5b828201905092915050565b6000620001d48262000131565b9150620001e18362000131565b9250817fffffffffffffffffffffffffffffffffffffffffffffffffffffffffffffffff04831182151516156200021d576200021c6200013b565b5b828202905092915050565b6000620002358262000131565b91507fffffffffffffffffffffffffffffffffffffffffffffffffffffffffffffffff8214156200026b576200026a6200013b565b5b600182019050919050565b61143d80620002866000396000f3fe60806040526004361061007b5760003560e01c80639ace38c21161004e5780639ace38c214610130578063afbd178214610170578063b952a9f81461019b578063da30bd1a146101d85761007b565b806327506f531461008057806350b44712146100ab57806367dd74ca146100e95780638da5cb5b14610105575b600080fd5b34801561008c57600080fd5b50610095610201565b6040516100a29190610ec4565b60405180910390f35b3480156100b757600080fd5b506100d260048036038101906100cd9190610f17565b61035c565b6040516100e0929190610f62565b60405180910390f35b61010360048036038101906100fe9190610f17565b6103a0565b005b34801561011157600080fd5b5061011a6106cb565b6040516101279190610f8b565b60405180910390f35b34801561013c57600080fd5b5061015760048036038101906101529190610f17565b6106ef565b6040516101679493929190610ff0565b60405180910390f35b34801561017c57600080fd5b506101856107d7565b604051610192919061103c565b60405180910390f35b3480156101a757600080fd5b506101c260048036038101906101bd9190611083565b6107dc565b6040516101cf919061103c565b60405180910390f35b3480156101e457600080fd5b506101ff60048036038101906101fa9190610f17565b61080d565b005b60606003805480602002602001604051908101604052809291908181526020016000905b8282101561035357838290600052602060002090600402016040518060800160405290816000820160009054906101000a900473ffffffffffffffffffffffffffffffffffffffff1673ffffffffffffffffffffffffffffffffffffffff1673ffffffffffffffffffffffffffffffffffffffff16815260200160018201548152602001600282015481526020016003820180546102c2906110f2565b80601f01602080910402602001604051908101604052809291908181526020018280546102ee906110f2565b801561033b5780601f106103105761010080835404028352916020019161033b565b820191906000526020600020905b81548152906001019060200180831161031e57829003601f168201915b50505050508152505081526020019060010190610225565b50505050905090565b60016020528060005260406000206000915090508060000154908060010160009054906101000a900473ffffffffffffffffffffffffffffffffffffffff16905082565b600a81106103e3576040517f08c379a00000000000000000000000000000000000000000000000000000000081526004016103da90611170565b60405180910390fd5b6000600160008381526020019081526020016000209050600073ffffffffffffffffffffffffffffffffffffffff168160010160009054906101000a900473ffffffffffffffffffffffffffffffffffffffff1673ffffffffffffffffffffffffffffffffffffffff161461048d576040517f08c379a0000000000000000000000000000000000000000000000000000000008152600401610484906111dc565b60405180910390fd5b80600001543410156104d4576040517f08c379a00000000000000000000000000000000000000000000000000000000081526004016104cb90611248565b60405180910390fd5b338160010160006101000a81548173ffffffffffffffffffffffffffffffffffffffff021916908373ffffffffffffffffffffffffffffffffffffffff160217905550600260003373ffffffffffffffffffffffffffffffffffffffff1673ffffffffffffffffffffffffffffffffffffffff168152602001908152602001600020829080600181540180825580915050600190039060005260206000200160009091909190915055600360405180608001604052803373ffffffffffffffffffffffffffffffffffffffff1681526020018481526020014281526020016040518060400160405280600381526020017f6275790000000000000000000000000000000000000000000000000000000000815250815250908060018154018082558091505060019003906000526020600020906004020160009091909190915060008201518160000160006101000a81548173ffffffffffffffffffffffffffffffffffffffff021916908373ffffffffffffffffffffffffffffffffffffffff1602179055506020820151816001015560408201518160020155606082015181600301908051906020019061068b929190610c09565b5050507f0668f5b446eb814fe35b3206f43f14bd8567ba04ddaf7a3ee56516929ab22ccb33836040516106bf929190611268565b60405180910390a15050565b60008054906101000a900473ffffffffffffffffffffffffffffffffffffffff1681565b600381815481106106ff57600080fd5b90600052602060002090600402016000915090508060000160009054906101000a900473ffffffffffffffffffffffffffffffffffffffff1690806001015490806002015490806003018054610754906110f2565b80601f0160208091040260200160405190810160405280929190818152602001828054610780906110f2565b80156107cd5780601f106107a2576101008083540402835291602001916107cd565b820191906000526020600020905b8154815290600101906020018083116107b057829003601f168201915b5050505050905084565b600a81565b600260205281600052604060002081815481106107f857600080fd5b90600052602060002001600091509150505481565b600a8110610850576040517f08c379a000000000000000000000000000000000000000000000000000000000815260040161084790611170565b60405180910390fd5b3373ffffffffffffffffffffffffffffffffffffffff166001600083815260200190815260200160002060010160009054906101000a900473ffffffffffffffffffffffffffffffffffffffff1673ffffffffffffffffffffffffffffffffffffffff16146108f4576040517f08c379a00000000000000000000000000000000000000000000000000000000081526004016108eb906112dd565b60405180910390fd5b60006001600083815260200190815260200160002060010160006101000a81548173ffffffffffffffffffffffffffffffffffffffff021916908373ffffffffffffffffffffffffffffffffffffffff1602179055506109543382610afe565b3373ffffffffffffffffffffffffffffffffffffffff166108fc60016000848152602001908152602001600020600001549081150290604051600060405180830381858888f193505050501580156109b0573d6000803e3d6000fd5b50600360405180608001604052803373ffffffffffffffffffffffffffffffffffffffff1681526020018381526020014281526020016040518060400160405280600681526020017f72657475726e0000000000000000000000000000000000000000000000000000815250815250908060018154018082558091505060019003906000526020600020906004020160009091909190915060008201518160000160006101000a81548173ffffffffffffffffffffffffffffffffffffffff021916908373ffffffffffffffffffffffffffffffffffffffff16021790555060208201518160010155604082015181600201556060820151816003019080519060200190610abf929190610c09565b5050507f432384862bede852a59e22cb64d7e458b82d14cbf1efa96c31f1361c830e5b533382604051610af3929190611268565b60405180910390a150565b6000600260008473ffffffffffffffffffffffffffffffffffffffff1673ffffffffffffffffffffffffffffffffffffffff168152602001908152602001600020905060005b8180549050811015610c035782828281548110610b6457610b636112fd565b5b90600052602060002001541415610bf0578160018380549050610b87919061135b565b81548110610b9857610b976112fd565b5b9060005260206000200154828281548110610bb657610bb56112fd565b5b906000526020600020018190555081805480610bd557610bd461138f565b5b60019003818190600052602060002001600090559055610c03565b8080610bfb906113be565b915050610b44565b50505050565b828054610c15906110f2565b90600052602060002090601f016020900481019282610c375760008555610c7e565b82601f10610c5057805160ff1916838001178555610c7e565b82800160010185558215610c7e579182015b82811115610c7d578251825591602001919060010190610c62565b5b509050610c8b9190610c8f565b5090565b5b80821115610ca8576000816000905550600101610c90565b5090565b600081519050919050565b600082825260208201905092915050565b6000819050602082019050919050565b600073ffffffffffffffffffffffffffffffffffffffff82169050919050565b6000610d0382610cd8565b9050919050565b610d1381610cf8565b82525050565b6000819050919050565b610d2c81610d19565b82525050565b600081519050919050565b600082825260208201905092915050565b60005b83811015610d6c578082015181840152602081019050610d51565b83811115610d7b576000848401525b50505050565b6000601f19601f8301169050919050565b6000610d9d82610d32565b610da78185610d3d565b9350610db7818560208601610d4e565b610dc081610d81565b840191505092915050565b6000608083016000830151610de36000860182610d0a565b506020830151610df66020860182610d23565b506040830151610e096040860182610d23565b5060608301518482036060860152610e218282610d92565b9150508091505092915050565b6000610e3a8383610dcb565b905092915050565b6000602082019050919050565b6000610e5a82610cac565b610e648185610cb7565b935083602082028501610e7685610cc8565b8060005b85811015610eb25784840389528151610e938582610e2e565b9450610e9e83610e42565b925060208a01995050600181019050610e7a565b50829750879550505050505092915050565b60006020820190508181036000830152610ede8184610e4f565b905092915050565b600080fd5b610ef481610d19565b8114610eff57600080fd5b50565b600081359050610f1181610eeb565b92915050565b600060208284031215610f2d57610f2c610ee6565b5b6000610f3b84828501610f02565b91505092915050565b610f4d81610d19565b82525050565b610f5c81610cf8565b82525050565b6000604082019050610f776000830185610f44565b610f846020830184610f53565b9392505050565b6000602082019050610fa06000830184610f53565b92915050565b600082825260208201905092915050565b6000610fc282610d32565b610fcc8185610fa6565b9350610fdc818560208601610d4e565b610fe581610d81565b840191505092915050565b60006080820190506110056000830187610f53565b6110126020830186610f44565b61101f6040830185610f44565b81810360608301526110318184610fb7565b905095945050505050565b60006020820190506110516000830184610f44565b92915050565b61106081610cf8565b811461106b57600080fd5b50565b60008135905061107d81611057565b92915050565b6000806040838503121561109a57611099610ee6565b5b60006110a88582860161106e565b92505060206110b985828601610f02565b9150509250929050565b7f4e487b7100000000000000000000000000000000000000000000000000000000600052602260045260246000fd5b6000600282049050600182168061110a57607f821691505b6020821081141561111e5761111d6110c3565b5b50919050565b7f496e76616c6964207469636b65742049442e0000000000000000000000000000600082015250565b600061115a601283610fa6565b915061116582611124565b602082019050919050565b600060208201905081810360008301526111898161114d565b9050919050565b7f5469636b657420616c726561647920736f6c642e000000000000000000000000600082015250565b60006111c6601483610fa6565b91506111d182611190565b602082019050919050565b600060208201905081810360008301526111f5816111b9565b9050919050565b7f496e73756666696369656e742045746865722073656e742e0000000000000000600082015250565b6000611232601883610fa6565b915061123d826111fc565b602082019050919050565b6000602082019050818103600083015261126181611225565b9050919050565b600060408201905061127d6000830185610f53565b61128a6020830184610f44565b9392505050565b7f596f7520646f206e6f74206f776e2074686973207469636b65742e0000000000600082015250565b60006112c7601b83610fa6565b91506112d282611291565b602082019050919050565b600060208201905081810360008301526112f6816112ba565b9050919050565b7f4e487b7100000000000000000000000000000000000000000000000000000000600052603260045260246000fd5b7f4e487b7100000000000000000000000000000000000000000000000000000000600052601160045260246000fd5b600061136682610d19565b915061137183610d19565b9250828210156113845761138361132c565b5b828203905092915050565b7f4e487b7100000000000000000000000000000000000000000000000000000000600052603160045260246000fd5b60006113c982610d19565b91507fffffffffffffffffffffffffffffffffffffffffffffffffffffffffffffffff8214156113fc576113fb61132c565b5b60018201905091905056fea2646970667358221220f772a7eb93b363654b73d76541368e7987a74898360f59104396fa6a6075ef5864736f6c634300080b0033",
  "immutableReferences": {},
  "source": "// SPDX-License-Identifier: MIT\r\npragma solidity ^0.8.0;\r\n\r\ncontract TicketSales {\r\n    address public owner;\r\n    uint256 public constant TOTAL_TICKETS = 10;\r\n    mapping(uint256 => Ticket) public tickets;\r\n    mapping(address => uint256[]) public customerTickets;\r\n\r\n    struct Ticket {\r\n        uint256 price;\r\n        address owner;\r\n    }\r\n\r\n    struct Transaction {\r\n        address buyer;\r\n        uint256 ticketId;\r\n        uint256 timestamp;\r\n        string transactionType; // \"buy\" or \"return\"\r\n    }\r\n\r\n    Transaction[] public transactions;\r\n\r\n    event TicketPurchased(address buyer, uint256 ticketId);\r\n    event TicketReturned(address buyer, uint256 ticketId);\r\n\r\n    constructor() {\r\n        owner = msg.sender;\r\n        // Initialize each ticket with a different price\r\n        for (uint256 i = 0; i < TOTAL_TICKETS; i++) {\r\n            tickets[i] = Ticket((i + 1) * 0.01 ether, address(0));\r\n        }\r\n    }\r\n\r\n    modifier onlyOwner() {\r\n        require(msg.sender == owner, \"Only the contract owner can perform this action.\");\r\n        _;\r\n    }\r\n\r\n    function buyTicket(uint256 ticketId) external payable {\r\n        require(ticketId < TOTAL_TICKETS, \"Invalid ticket ID.\");\r\n        Ticket storage ticket = tickets[ticketId];\r\n        require(ticket.owner == address(0), \"Ticket already sold.\");\r\n        require(msg.value >= ticket.price, \"Insufficient Ether sent.\");\r\n\r\n        ticket.owner = msg.sender;\r\n        customerTickets[msg.sender].push(ticketId);\r\n\r\n        transactions.push(Transaction(msg.sender, ticketId, block.timestamp, \"buy\"));\r\n\r\n        emit TicketPurchased(msg.sender, ticketId);\r\n    }\r\n\r\n    function returnTicket(uint256 ticketId) external {\r\n        require(ticketId < TOTAL_TICKETS, \"Invalid ticket ID.\");\r\n        require(tickets[ticketId].owner == msg.sender, \"You do not own this ticket.\");\r\n\r\n        tickets[ticketId].owner = address(0);\r\n        removeTicketFromCustomer(msg.sender, ticketId);\r\n\r\n        payable(msg.sender).transfer(tickets[ticketId].price);\r\n\r\n        transactions.push(Transaction(msg.sender, ticketId, block.timestamp, \"return\"));\r\n\r\n        emit TicketReturned(msg.sender, ticketId);\r\n    }\r\n\r\n    function getAllTransactions() public view returns (Transaction[] memory) {\r\n        return transactions;\r\n    }\r\n\r\n    function removeTicketFromCustomer(address customer, uint256 ticketId) private {\r\n        uint256[] storage ownedTickets = customerTickets[customer];\r\n        for (uint256 i = 0; i < ownedTickets.length; i++) {\r\n            if (ownedTickets[i] == ticketId) {\r\n                ownedTickets[i] = ownedTickets[ownedTickets.length - 1];\r\n                ownedTickets.pop();\r\n                break;\r\n            }\r\n        }\r\n    }\r\n}",
  "sourcePath": "C:\\xampp\\htdocs\\Steam_Market\\contracts\\TicketSales.sol",
  "compiler": {
    "name": "solc",
    "version": "0.8.11+commit.d7f03943.Emscripten.clang"
  },
  "schemaVersion": "3.4.16",
  "updatedAt": "2024-03-19T14:18:38.244Z",
  "networkType": "ethereum",
  "devdoc": {
    "kind": "dev",
    "methods": {},
    "version": 1
  },
  "userdoc": {
    "kind": "user",
    "methods": {},
    "version": 1
  }
}